:020000020000FC
:1000E40070E07093010270930C0270930E020E94F0
:1000F400241118E30E94351111E00E94351116E015
:100104000E9435111CE00E94351112E00E94351145
:1001140060E060930C0211E00E9435114F935F93ED
:100124006F9344E15FEF6FEF6A956030E9F75A959A
:100134005030C9F74A954030A9F76F915F914F91BC
:100144004F935F936F9344E15FEF6FEF6A95603075
:10015400E9F75A955030C9F74A954030A9F76F919D
:100164005F914F914F935F936F9344E15FEF6FEF14
:100174006A956030E9F75A955030C9F74A9540308E
:10018400A9F76F915F914F914F935F936F9344E100
:100194005FEF6FEF6A956030E9F75A955030C9F711
:1001A4004A954030A9F76F915F914F9111E00E94F9
:1001B4003511EF93FF936F934F934FEF4A95403070
:1001C400E9F74F914F934FEF4A954030E9F74F913C
:1001D400E2E7F4E2C895E395602D613221F0102D39
:1001E4000E943911F7CF6F91FF91EF914F935F9375
:1001F4006F9344E15FEF6FEF6A956030E9F75A95CA
:100204005030C9F74A954030A9F76F915F914F91EB
:100214000E945D1160910102603031F0613031F073
:10022400623031F0633031F00C941E010C941F05E0
:100234000C9420090C94210D30E0E4E1F5E4609184
:100244000C026A3011F00C9429010C9499042F9338
:100254005F937F938F93FF93EF9311E00E94351187
:100264004F935F936F9344E15FEF6FEF6A95603054
:10027400E9F75A955030C9F74A954030A9F76F917C
:100284005F914F914F935F936F9344E15FEF6FEFF3
:100294006A956030E9F75A955030C9F74A9540306D
:1002A400A9F76F915F914F9110E80E943511EF9378
:1002B400FF936F937F939F9360910C02E0E0F0E4CF
:1002C40072E8603039F06A958894E70FD0F7F395B7
:1002D4000C94630190E08894E90F08F4F395C895B1
:1002E400E395E03009F4F395602D613221F0102D8F
:1002F4000E943911F4CF9F917F916F91FF91EF91FB
:100304004F935F936F9344E15FEF6FEF6A956030B3
:10031400E9F75A955030C9F74A954030A9F76F91DB
:100324005F914F9150910E0280910C0253705030A6
:1003340031F0513031F0523031F0533031F00C940F
:10034400A9010C945B020C940D030C94BF0314E9F3
:100354000E943511EF93FF936F937F939F93609166
:100364000C02E0E0F0E472E8603039F06A958894B9
:10037400E70FD0F7F3950C94B60192E58894E90F52
:1003840008F4F395C895E395E03009F4F395602DEE
:10039400613221F0102D0E943911F4CF9F917F9189
:1003A4006F91FF91EF911EE90E943511EF93FF9336
:1003B4006F937F939F9360910C02E0E0F0E472E806
:1003C400603039F06A958894E70FD0F7F3950C9470
:1003D400E2019EE58894E90F08F4F395C895E39546
:1003E400E03009F4F395602D613221F0102D0E9464
:1003F4003911F4CF9F917F916F91FF91EF9114ED9B
:100404000E943511EF93FF936F937F939F936091B5
:100414000C02E0E0F0E472E8603039F06A95889408
:10042400E70FD0F7F3950C940E029AE68894E90F3F
:1004340008F4F395C895E395E03009F4F395602D3D
:10044400613221F0102D0E943911F4CF9F917F91D8
:100454006F91FF91EF911EED0E943511EF93FF9381
:100464006F937F939F9360910C02E0E0F0E472E855
:10047400603039F06A958894E70FD0F7F3950C94BF
:100484003A0296E78894E90F08F4F395C895E39542
:10049400E03009F4F395602D613221F0102D0E94B3
:1004A4003911F4CF9F917F916F91FF91EF910C944B
:1004B400710414E90E943511EF93FF936F937F93B6
:1004C4009F9360910C02E0E0F0E472E8603039F050
:1004D4006A958894E70FD0F7F3950C94680296E731
:1004E4008894E90F08F4F395C895E395E03009F48E
:1004F400F395602D613221F0102D0E943911F4CF53
:100504009F917F916F91FF91EF911EE90E943511A8
:10051400EF93FF936F937F939F9360910C02E0E0BE
:10052400F0E472E8603039F06A958894E70FD0F708
:10053400F3950C94940292E58894E90F08F4F395EA
:10054400C895E395E03009F4F395602D613221F00C
:10055400102D0E943911F4CF9F917F916F91FF91DB
:10056400EF9114ED0E943511EF93FF936F937F93F6
:100574009F9360910C02E0E0F0E472E8603039F09F
:100584006A958894E70FD0F7F3950C94C0029EE522
:100594008894E90F08F4F395C895E395E03009F4DD
:1005A400F395602D613221F0102D0E943911F4CFA2
:1005B4009F917F916F91FF91EF911EED0E943511F4
:1005C400EF93FF936F937F939F9360910C02E0E00E
:1005D400F0E472E8603039F06A958894E70FD0F758
:1005E400F3950C94EC029AE68894E90F08F4F395D9
:1005F400C895E395E03009F4F395602D613221F05C
:10060400102D0E943911F4CF9F917F916F91FF912A
:10061400EF910C94710414E90E943511EF93FF9348
:100624006F937F939F9360910C02E0E0F0E472E893
:10063400603039F06A958894E70FD0F7F3950C94FD
:100644001A039AE68894E90F08F4F395C895E3959C
:10065400E03009F4F395602D613221F0102D0E94F1
:100664003911F4CF9F917F916F91FF91EF911EE922
:100674000E943511EF93FF936F937F939F93609143
:100684000C02E0E0F0E472E8603039F06A95889496
:10069400E70FD0F7F3950C94460396E78894E90F97
:1006A40008F4F395C895E395E03009F4F395602DCB
:1006B400613221F0102D0E943911F4CF9F917F9166
:1006C4006F91FF91EF9114ED0E943511EF93FF9319
:1006D4006F937F939F9360910C02E0E0F0E472E8E3
:1006E400603039F06A958894E70FD0F7F3950C944D
:1006F400720392E58894E90F08F4F395C895E3959D
:10070400E03009F4F395602D613221F0102D0E9440
:100714003911F4CF9F917F916F91FF91EF911EED6D
:100724000E943511EF93FF936F937F939F93609192
:100734000C02E0E0F0E472E8603039F06A958894E5
:10074400E70FD0F7F3950C949E039EE58894E90F88
:1007540008F4F395C895E395E03009F4F395602D1A
:10076400613221F0102D0E943911F4CF9F917F91B5
:100774006F91FF91EF910C94710414E90E9435116B
:10078400EF93FF936F937F939F9360910C02E0E04C
:10079400F0E472E8603039F06A958894E70FD0F796
:1007A400F3950C94CC0396E78894E90F08F4F39539
:1007B400C895E395E03009F4F395602D613221F09A
:1007C400102D0E943911F4CF9F917F916F91FF9169
:1007D400EF911EE90E943511EF93FF936F937F937E
:1007E4009F9360910C02E0E0F0E472E8603039F02D
:1007F4006A958894E70FD0F7F3950C94F80392E583
:100804008894E90F08F4F395C895E395E03009F46A
:10081400F395602D613221F0102D0E943911F4CF2F
:100824009F917F916F91FF91EF9114ED0E9435118B
:10083400EF93FF936F937F939F9360910C02E0E09B
:10084400F0E472E8603039F06A958894E70FD0F7E5
:10085400F3950C9424049EE58894E90F08F4F39529
:10086400C895E395E03009F4F395602D613221F0E9
:10087400102D0E943911F4CF9F917F916F91FF91B8
:10088400EF911EED0E943511EF93FF936F937F93C9
:100894009F9360910C02E0E0F0E472E8603039F07C
:1008A4006A958894E70FD0F7F3950C9450049AE670
:1008B4008894E90F08F4F395C895E395E03009F4BA
:1008C400F395602D613221F0102D0E943911F4CF7F
:1008D4009F917F916F91FF91EF910C9471045091CE
:1008E4000E025395537050930E02EF91FF918F9126
:1008F4007F915F912F912F9320910C022395209348
:100904000C022F910E945D11C89531968F937F93AD
:1009140080910E02080E702D7A95737080910102F9
:10092400871709F433957F918F910C94210160E02E
:1009340060930C0211E00E9435114F935F936F9303
:1009440044E15FEF6FEF6A956030E9F75A955030F4
:10095400C9F74A954030A9F76F915F914F914F9332
:100964005F936F9344E15FEF6FEF6A956030E9F74F
:100974005A955030C9F74A954030A9F76F915F9165
:100984004F9111E00E9435114F935F936F9344E1AF
:100994005FEF6FEF6A956030E9F75A955030C9F709
:1009A4004A954030A9F76F915F914F914F935F93B0
:1009B4006F9344E15FEF6FEF6A956030E9F75A9502
:1009C4005030C9F74A954030A9F76F915F914F9124
:1009D400EF93FF936F934F934FEF4A954030E9F7AE
:1009E4004F914F934FEF4A954030E9F74F91EAE723
:1009F400F4E5C895E395602D613221F0102D0E9435
:100A04003911F7CF6F91FF91EF911BE90E943511D6
:100A140020E3230F122F0E9439112FE2122F0E947C
:100A2400391121E3122F0E94391120E3122F0E9461
:100A340039110E945D110C94221130E0E2E5FFE4CB
:100A440060910C026A3011F00C942A050C949A08F7
:100A54002F935F937F938F93FF93EF9311E00E9403
:100A640035114F935F936F9344E15FEF6FEF6A9596
:100A74006030E9F75A955030C9F74A954030A9F7E4
:100A84006F915F914F914F935F936F9344E15FEF49
:100A94006FEF6A956030E9F75A955030C9F74A9577
:100AA4004030A9F76F915F914F9110E80E94351182
:100AB400EF93FF936F937F939F9360910C02EEE308
:100AC400FAE472E8603039F06A958894E70FD0F759
:100AD400F3950C94640590E08894E90F08F4F39579
:100AE400C895E395E03009F4F395602D613221F067
:100AF400102D0E943911F4CF9F917F916F91FF9136
:100B0400EF914F935F936F9344E15FEF6FEF6A95BB
:100B14006030E9F75A955030C9F74A954030A9F743
:100B24006F915F914F9150910E0280910C0253701E
:100B3400503031F0513031F0523031F0533031F027
:100B44000C94AA050C945C060C940E070C94C00734
:100B540014E90E943511EF93FF936F937F939F9352
:100B640060910C02EEE3FAE472E8603039F06A95C1
:100B74008894E70FD0F7F3950C94B70592E5889421
:100B8400E90F08F4F395C895E395E03009F4F3957B
:100B9400602D613221F0102D0E943911F4CF9F9104
:100BA4007F916F91FF91EF911EE90E943511EF93B0
:100BB400FF936F937F939F9360910C02EEE3FAE4AB
:100BC40072E8603039F06A958894E70FD0F7F395AE
:100BD4000C94E3059EE58894E90F08F4F395C89511
:100BE400E395E03009F4F395602D613221F0102D86
:100BF4000E943911F4CF9F917F916F91FF91EF91F2
:100C040014ED0E943511EF93FF936F937F939F939D
:100C140060910C02EEE3FAE472E8603039F06A9510
:100C24008894E70FD0F7F3950C940F069AE688940E
:100C3400E90F08F4F395C895E395E03009F4F395CA
:100C4400602D613221F0102D0E943911F4CF9F9153
:100C54007F916F91FF91EF911EED0E943511EF93FB
:100C6400FF936F937F939F9360910C02EEE3FAE4FA
:100C740072E8603039F06A958894E70FD0F7F395FD
:100C84000C943B0696E78894E90F08F4F395C8950D
:100C9400E395E03009F4F395602D613221F0102DD5
:100CA4000E943911F4CF9F917F916F91FF91EF9141
:100CB4000C94720814E90E943511EF93FF936F931B
:100CC4007F939F9360910C02EEE3FAE472E8603044
:100CD40039F06A958894E70FD0F7F3950C94690678
:100CE40096E78894E90F08F4F395C895E395E03006
:100CF40009F4F395602D613221F0102D0E94391111
:100D0400F4CF9F917F916F91FF91EF911EE90E9423
:100D14003511EF93FF936F937F939F9360910C0230
:100D2400EEE3FAE472E8603039F06A958894E70FEC
:100D3400D0F7F3950C94950692E58894E90F08F49E
:100D4400F395C895E395E03009F4F395602D61328D
:100D540021F0102D0E943911F4CF9F917F916F9152
:100D6400FF91EF9114ED0E943511EF93FF936F9370
:100D74007F939F9360910C02EEE3FAE472E8603093
:100D840039F06A958894E70FD0F7F3950C94C1066F
:100D94009EE58894E90F08F4F395C895E395E0304F
:100DA40009F4F395602D613221F0102D0E94391160
:100DB400F4CF9F917F916F91FF91EF911EED0E946F
:100DC4003511EF93FF936F937F939F9360910C0280
:100DD400EEE3FAE472E8603039F06A958894E70F3C
:100DE400D0F7F3950C94ED069AE68894E90F08F48D
:100DF400F395C895E395E03009F4F395602D6132DD
:100E040021F0102D0E943911F4CF9F917F916F91A1
:100E1400FF91EF910C94720814E90E943511EF933D
:100E2400FF936F937F939F9360910C02EEE3FAE438
:100E340072E8603039F06A958894E70FD0F7F3953B
:100E44000C941B079AE68894E90F08F4F395C89567
:100E5400E395E03009F4F395602D613221F0102D13
:100E64000E943911F4CF9F917F916F91FF91EF917F
:100E74001EE90E943511EF93FF936F937F939F9325
:100E840060910C02EEE3FAE472E8603039F06A959E
:100E94008894E70FD0F7F3950C94470796E7889466
:100EA400E90F08F4F395C895E395E03009F4F39558
:100EB400602D613221F0102D0E943911F4CF9F91E1
:100EC4007F916F91FF91EF9114ED0E943511EF9393
:100ED400FF936F937F939F9360910C02EEE3FAE488
:100EE40072E8603039F06A958894E70FD0F7F3958B
:100EF4000C94730792E58894E90F08F4F395C89568
:100F0400E395E03009F4F395602D613221F0102D62
:100F14000E943911F4CF9F917F916F91FF91EF91CE
:100F24001EED0E943511EF93FF936F937F939F9370
:100F340060910C02EEE3FAE472E8603039F06A95ED
:100F44008894E70FD0F7F3950C949F079EE5889457
:100F5400E90F08F4F395C895E395E03009F4F395A7
:100F6400602D613221F0102D0E943911F4CF9F9130
:100F74007F916F91FF91EF910C94720814E90E9494
:100F84003511EF93FF936F937F939F9360910C02BE
:100F9400EEE3FAE472E8603039F06A958894E70F7A
:100FA400D0F7F3950C94CD0796E78894E90F08F4ED
:100FB400F395C895E395E03009F4F395602D61321B
:100FC40021F0102D0E943911F4CF9F917F916F91E0
:100FD400FF91EF911EE90E943511EF93FF936F93F8
:100FE4007F939F9360910C02EEE3FAE472E8603021
:100FF40039F06A958894E70FD0F7F3950C94F907C4
:1010040092E58894E90F08F4F395C895E395E030E8
:1010140009F4F395602D613221F0102D0E943911ED
:10102400F4CF9F917F916F91FF91EF9114ED0E9406
:101034003511EF93FF936F937F939F9360910C020D
:10104400EEE3FAE472E8603039F06A958894E70FC9
:10105400D0F7F3950C9425089EE58894E90F08F4DD
:10106400F395C895E395E03009F4F395602D61326A
:1010740021F0102D0E943911F4CF9F917F916F912F
:10108400FF91EF911EED0E943511EF93FF936F9343
:101094007F939F9360910C02EEE3FAE472E8603070
:1010A40039F06A958894E70FD0F7F3950C945108BA
:1010B4009AE68894E90F08F4F395C895E395E0302F
:1010C40009F4F395602D613221F0102D0E9439113D
:1010D400F4CF9F917F916F91FF91EF910C947208DF
:1010E40050910E025395537050930E02EF91FF915D
:1010F4008F917F915F912F912F9320910C022395D3
:1011040020930C022F910E945D11C89531968F9304
:101114007F9380910E02080E702D7A9573708091E2
:101124000102871709F433957F918F910C9422055E
:1011340060E060930C0211E00E9435114F935F93BD
:101144006F9344E15FEF6FEF6A956030E9F75A956A
:101154005030C9F74A954030A9F76F915F914F918C
:101164004F935F936F9344E15FEF6FEF6A95603045
:10117400E9F75A955030C9F74A954030A9F76F916D
:101184005F914F9111E00E9435114F935F936F93DC
:1011940044E15FEF6FEF6A956030E9F75A9550309C
:1011A400C9F74A954030A9F76F915F914F914F93DA
:1011B4005F936F9344E15FEF6FEF6A956030E9F7F7
:1011C4005A955030C9F74A954030A9F76F915F910D
:1011D4004F91EF93FF936F934F934FEF4A954030A6
:1011E400E9F74F914F934FEF4A954030E9F74F910C
:1011F400EAE7F4E5C895E395602D613221F0102DFE
:101204000E943911F7CF6F91FF91EF911BE90E9472
:10121400351120E3230F122F0E9439112FE2122FD0
:101224000E94391121E3122F0E94391120E3122F59
:101234000E9439110E945D110C94221130E0E4E304
:10124400FAE460910C026A3011F00C942B090C94AE
:101254009B0C2F935F937F938F93FF93EF9311E0F6
:101264000E9435114F935F936F9344E15FEF6FEFEB
:101274006A956030E9F75A955030C9F74A9540307D
:10128400A9F76F915F914F914F935F936F9344E1EF
:101294005FEF6FEF6A956030E9F75A955030C9F700
:1012A4004A954030A9F76F915F914F9110E80E94E1
:1012B4003511EF93FF936F937F939F9360910C028B
:1012C400E0E2F5E472E8603039F06A958894E70F5B
:1012D400D0F7F3950C94650990E08894E90F08F42D
:1012E400F395C895E395E03009F4F395602D6132E8
:1012F40021F0102D0E943911F4CF9F917F916F91AD
:10130400FF91EF914F935F936F9344E15FEF6FEF22
:101314006A956030E9F75A955030C9F74A954030DC
:10132400A9F76F915F914F9150910E0280910C0239
:101334005370503031F0513031F0523031F053307D
:1013440031F00C94AB090C945D0A0C940F0B0C94C3
:10135400C10B14E90E943511EF93FF936F937F93B0
:101364009F9360910C02E0E2F5E472E8603039F09A
:101374006A958894E70FD0F7F3950C94B80992E531
:101384008894E90F08F4F395C895E395E03009F4DF
:10139400F395602D613221F0102D0E943911F4CFA4
:1013A4009F917F916F91FF91EF911EE90E943511FA
:1013B400EF93FF936F937F939F9360910C02E0E20E
:1013C400F5E472E8603039F06A958894E70FD0F755
:1013D400F3950C94E4099EE58894E90F08F4F395D9
:1013E400C895E395E03009F4F395602D613221F05E
:1013F400102D0E943911F4CF9F917F916F91FF912D
:10140400EF9114ED0E943511EF93FF936F937F9347
:101414009F9360910C02E0E2F5E472E8603039F0E9
:101424006A958894E70FD0F7F3950C94100A9AE61E
:101434008894E90F08F4F395C895E395E03009F42E
:10144400F395602D613221F0102D0E943911F4CFF3
:101454009F917F916F91FF91EF911EED0E94351145
:10146400EF93FF936F937F939F9360910C02E0E25D
:10147400F5E472E8603039F06A958894E70FD0F7A4
:10148400F3950C943C0A96E78894E90F08F4F395D5
:10149400C895E395E03009F4F395602D613221F0AD
:1014A400102D0E943911F4CF9F917F916F91FF917C
:1014B400EF910C94730C14E90E943511EF93FF9390
:1014C4006F937F939F9360910C02E0E2F5E472E8DE
:1014D400603039F06A958894E70FD0F7F3950C944F
:1014E4006A0A96E78894E90F08F4F395C895E3959A
:1014F400E03009F4F395602D613221F0102D0E9443
:101504003911F4CF9F917F916F91FF91EF911EE973
:101514000E943511EF93FF936F937F939F93609194
:101524000C02E0E2F5E472E8603039F06A958894E0
:10153400E70FD0F7F3950C94960A92E58894E90F97
:1015440008F4F395C895E395E03009F4F395602D1C
:10155400613221F0102D0E943911F4CF9F917F91B7
:101564006F91FF91EF9114ED0E943511EF93FF936A
:101574006F937F939F9360910C02E0E2F5E472E82D
:10158400603039F06A958894E70FD0F7F3950C949E
:10159400C20A9EE58894E90F08F4F395C895E3958B
:1015A400E03009F4F395602D613221F0102D0E9492
:1015B4003911F4CF9F917F916F91FF91EF911EEDBF
:1015C4000E943511EF93FF936F937F939F936091E4
:1015D4000C02E0E2F5E472E8603039F06A95889430
:1015E400E70FD0F7F3950C94EE0A9AE68894E90F86
:1015F40008F4F395C895E395E03009F4F395602D6C
:10160400613221F0102D0E943911F4CF9F917F9106
:101614006F91FF91EF910C94730C14E90E943511B2
:10162400EF93FF936F937F939F9360910C02E0E29B
:10163400F5E472E8603039F06A958894E70FD0F7E2
:10164400F3950C941C0B9AE68894E90F08F4F3952F
:10165400C895E395E03009F4F395602D613221F0EB
:10166400102D0E943911F4CF9F917F916F91FF91BA
:10167400EF911EE90E943511EF93FF936F937F93CF
:101684009F9360910C02E0E2F5E472E8603039F077
:101694006A958894E70FD0F7F3950C94480B96E776
:1016A4008894E90F08F4F395C895E395E03009F4BC
:1016B400F395602D613221F0102D0E943911F4CF81
:1016C4009F917F916F91FF91EF9114ED0E943511DD
:1016D400EF93FF936F937F939F9360910C02E0E2EB
:1016E400F5E472E8603039F06A958894E70FD0F732
:1016F400F3950C94740B92E58894E90F08F4F39530
:10170400C895E395E03009F4F395602D613221F03A
:10171400102D0E943911F4CF9F917F916F91FF9109
:10172400EF911EED0E943511EF93FF936F937F931A
:101734009F9360910C02E0E2F5E472E8603039F0C6
:101744006A958894E70FD0F7F3950C94A00B9EE567
:101754008894E90F08F4F395C895E395E03009F40B
:10176400F395602D613221F0102D0E943911F4CFD0
:101774009F917F916F91FF91EF910C94730C14E9F9
:101784000E943511EF93FF936F937F939F93609122
:101794000C02E0E2F5E472E8603039F06A9588946E
:1017A400E70FD0F7F3950C94CE0B96E78894E90FE6
:1017B40008F4F395C895E395E03009F4F395602DAA
:1017C400613221F0102D0E943911F4CF9F917F9145
:1017D4006F91FF91EF911EE90E943511EF93FF93F2
:1017E4006F937F939F9360910C02E0E2F5E472E8BB
:1017F400603039F06A958894E70FD0F7F3950C942C
:10180400FA0B92E58894E90F08F4F395C895E395EB
:10181400E03009F4F395602D613221F0102D0E941F
:101824003911F4CF9F917F916F91FF91EF9114ED56
:101834000E943511EF93FF936F937F939F93609171
:101844000C02E0E2F5E472E8603039F06A958894BD
:10185400E70FD0F7F3950C94260C9EE58894E90FD6
:1018640008F4F395C895E395E03009F4F395602DF9
:10187400613221F0102D0E943911F4CF9F917F9194
:101884006F91FF91EF911EED0E943511EF93FF933D
:101894006F937F939F9360910C02E0E2F5E472E80A
:1018A400603039F06A958894E70FD0F7F3950C947B
:1018B400520C9AE68894E90F08F4F395C895E395D9
:1018C400E03009F4F395602D613221F0102D0E946F
:1018D4003911F4CF9F917F916F91FF91EF910C9407
:1018E400730C50910E025395537050930E02EF9166
:1018F400FF918F917F915F912F912F9320910C02F3
:10190400239520930C022F910E945D11C895319666
:101914008F937F9380910E02080E702D7A957370C9
:1019240080910102871709F433957F918F910C946C
:10193400230960E060930C0211E00E9435114F937B
:101944005F936F9344E15FEF6FEF6A956030E9F75F
:101954005A955030C9F74A954030A9F76F915F9175
:101964004F914F935F936F9344E15FEF6FEF6A95ED
:101974006030E9F75A955030C9F74A954030A9F7D5
:101984006F915F914F9111E00E9435114F935F93D6
:101994006F9344E15FEF6FEF6A956030E9F75A9512
:1019A4005030C9F74A954030A9F76F915F914F9134
:1019B4004F935F936F9344E15FEF6FEF6A956030ED
:1019C400E9F75A955030C9F74A954030A9F76F9115
:1019D4005F914F91EF93FF936F934F934FEF4A951E
:1019E4004030E9F74F914F934FEF4A954030E9F774
:1019F4004F91EAE7F4E5C895E395602D613221F053
:101A0400102D0E943911F7CF6F91FF91EF911BE9CF
:101A14000E94351120E3230F122F0E9439112FE267
:101A2400122F0E94391121E3122F0E94391120E351
:101A3400122F0E9439110E945D110C94221130E082
:101A4400E0E7F4E560910C026A3011F00C942C0D7F
:101A54000C949C102F935F937F938F93FF93EF933A
:101A640011E00E9435114F935F936F9344E15FEF50
:101A74006FEF6A956030E9F75A955030C9F74A9587
:101A84004030A9F76F915F914F914F935F936F939C
:101A940044E15FEF6FEF6A956030E9F75A95503093
:101AA400C9F74A954030A9F76F915F914F9110E8BB
:101AB4000E943511EF93FF936F937F939F936091EF
:101AC4000C02ECE5FFE472E8603039F06A95889422
:101AD400E70FD0F7F3950C94660D90E08894E90F26
:101AE40008F4F395C895E395E03009F4F395602D77
:101AF400613221F0102D0E943911F4CF9F917F9112
:101B04006F91FF91EF914F935F936F9344E15FEF78
:101B14006FEF6A956030E9F75A955030C9F74A95E6
:101B24004030A9F76F915F914F9150910E028091CF
:101B34000C025370503031F0513031F0523031F0EA
:101B4400533031F00C94AC0D0C945E0E0C94100FC9
:101B54000C94C20F14E90E943511EF93FF936F9315
:101B64007F939F9360910C02ECE5FFE472E8603090
:101B740039F06A958894E70FD0F7F3950C94B90D72
:101B840092E58894E90F08F4F395C895E395E0305D
:101B940009F4F395602D613221F0102D0E94391162
:101BA400F4CF9F917F916F91FF91EF911EE90E9475
:101BB4003511EF93FF936F937F939F9360910C0282
:101BC400ECE5FFE472E8603039F06A958894E70F39
:101BD400D0F7F3950C94E50D9EE58894E90F08F48D
:101BE400F395C895E395E03009F4F395602D6132DF
:101BF40021F0102D0E943911F4CF9F917F916F91A4
:101C0400FF91EF9114ED0E943511EF93FF936F93C1
:101C14007F939F9360910C02ECE5FFE472E86030DF
:101C240039F06A958894E70FD0F7F3950C94110E68
:101C34009AE68894E90F08F4F395C895E395E030A3
:101C440009F4F395602D613221F0102D0E943911B1
:101C5400F4CF9F917F916F91FF91EF911EED0E94C0
:101C64003511EF93FF936F937F939F9360910C02D1
:101C7400ECE5FFE472E8603039F06A958894E70F88
:101C8400D0F7F3950C943D0E96E78894E90F08F489
:101C9400F395C895E395E03009F4F395602D61322E
:101CA40021F0102D0E943911F4CF9F917F916F91F3
:101CB400FF91EF910C94741014E90E943511EF9385
:101CC400FF936F937F939F9360910C02ECE5FFE485
:101CD40072E8603039F06A958894E70FD0F7F3958D
:101CE4000C946B0E96E78894E90F08F4F395C89565
:101CF400E395E03009F4F395602D613221F0102D65
:101D04000E943911F4CF9F917F916F91FF91EF91D0
:101D14001EE90E943511EF93FF936F937F939F9376
:101D240060910C02ECE5FFE472E8603039F06A95EA
:101D34008894E70FD0F7F3950C94970E92E5889466
:101D4400E90F08F4F395C895E395E03009F4F395A9
:101D5400602D613221F0102D0E943911F4CF9F9132
:101D64007F916F91FF91EF9114ED0E943511EF93E4
:101D7400FF936F937F939F9360910C02ECE5FFE4D4
:101D840072E8603039F06A958894E70FD0F7F395DC
:101D94000C94C30E9EE58894E90F08F4F395C89556
:101DA400E395E03009F4F395602D613221F0102DB4
:101DB4000E943911F4CF9F917F916F91FF91EF9120
:101DC4001EED0E943511EF93FF936F937F939F93C2
:101DD40060910C02ECE5FFE472E8603039F06A953A
:101DE4008894E70FD0F7F3950C94EF0E9AE6889455
:101DF400E90F08F4F395C895E395E03009F4F395F9
:101E0400602D613221F0102D0E943911F4CF9F9181
:101E14007F916F91FF91EF910C94741014E90E94DB
:101E24003511EF93FF936F937F939F9360910C020F
:101E3400ECE5FFE472E8603039F06A958894E70FC6
:101E4400D0F7F3950C941D0F9AE68894E90F08F4E3
:101E5400F395C895E395E03009F4F395602D61326C
:101E640021F0102D0E943911F4CF9F917F916F9131
:101E7400FF91EF911EE90E943511EF93FF936F9349
:101E84007F939F9360910C02ECE5FFE472E860306D
:101E940039F06A958894E70FD0F7F3950C94490FBD
:101EA40096E78894E90F08F4F395C895E395E03034
:101EB40009F4F395602D613221F0102D0E9439113F
:101EC400F4CF9F917F916F91FF91EF9114ED0E9458
:101ED4003511EF93FF936F937F939F9360910C025F
:101EE400ECE5FFE472E8603039F06A958894E70F16
:101EF400D0F7F3950C94750F92E58894E90F08F4E4
:101F0400F395C895E395E03009F4F395602D6132BB
:101F140021F0102D0E943911F4CF9F917F916F9180
:101F2400FF91EF911EED0E943511EF93FF936F9394
:101F34007F939F9360910C02ECE5FFE472E86030BC
:101F440039F06A958894E70FD0F7F3950C94A10FB4
:101F54009EE58894E90F08F4F395C895E395E0307D
:101F640009F4F395602D613221F0102D0E9439118E
:101F7400F4CF9F917F916F91FF91EF910C94741026
:101F840014E90E943511EF93FF936F937F939F930E
:101F940060910C02ECE5FFE472E8603039F06A9578
:101FA4008894E70FD0F7F3950C94CF0F96E78894B5
:101FB400E90F08F4F395C895E395E03009F4F39537
:101FC400602D613221F0102D0E943911F4CF9F91C0
:101FD4007F916F91FF91EF911EE90E943511EF936C
:101FE400FF936F937F939F9360910C02ECE5FFE462
:101FF40072E8603039F06A958894E70FD0F7F3956A
:102004000C94FB0F92E58894E90F08F4F395C895B6
:10201400E395E03009F4F395602D613221F0102D41
:102024000E943911F4CF9F917F916F91FF91EF91AD
:1020340014ED0E943511EF93FF936F937F939F9359
:1020440060910C02ECE5FFE472E8603039F06A95C7
:102054008894E70FD0F7F3950C9427109EE58894A5
:10206400E90F08F4F395C895E395E03009F4F39586
:10207400602D613221F0102D0E943911F4CF9F910F
:102084007F916F91FF91EF911EED0E943511EF93B7
:10209400FF936F937F939F9360910C02ECE5FFE4B1
:1020A40072E8603039F06A958894E70FD0F7F395B9
:1020B4000C9453109AE68894E90F08F4F395C895A4
:1020C400E395E03009F4F395602D613221F0102D91
:1020D4000E943911F4CF9F917F916F91FF91EF91FD
:1020E4000C94741050910E025395537050930E0239
:1020F400EF91FF918F917F915F912F912F93209179
:102104000C02239520930C022F910E945D11C89517
:1021140031968F937F9380910E02080E702D7A95DD
:10212400737080910102871709F433957F918F9121
:102134000C94240D60E060930C0211E00E943511B0
:102144004F935F936F9344E15FEF6FEF6A95603055
:10215400E9F75A955030C9F74A954030A9F76F917D
:102164005F914F914F935F936F9344E15FEF6FEFF4
:102174006A956030E9F75A955030C9F74A9540306E
:10218400A9F76F915F914F9111E00E9435114F9320
:102194005F936F9344E15FEF6FEF6A956030E9F707
:1021A4005A955030C9F74A954030A9F76F915F911D
:1021B4004F914F935F936F9344E15FEF6FEF6A9595
:1021C4006030E9F75A955030C9F74A954030A9F77D
:1021D4006F915F914F91EF93FF936F934F934FEFF5
:1021E4004A954030E9F74F914F934FEF4A9540306D
:1021F400E9F74F91EAE7F4E5C895E395602D61327C
:1022040021F0102D0E943911F7CF6F91FF91EF91BA
:102214001BE90E94351120E3230F122F0E9439116C
:102224002FE2122F0E94391121E3122F0E9439113B
:1022340020E3122F0E9439110E945D110C94221187
:102244000C948D00109811981298089A099A0A9A79
:1022540029D008951098119A129A29D012980FB182
:102264000078D1F70895F894F5DF109803C0F89436
:10227400F1DF109A1198129A0FEF00BB11BB17D01F
:10228400129810D078940895F894E4DF109803C05D
:10229400F894E0DF109A119A129A09D01FB112989B
:1022A4007894089500E000BB0FEF01BB08950EE0A1
:1022B4000A95F1F708952F934F935F936F9348E036
:1022C40047B960E041E317EE0E943511142F0E94D4
:1022D40039114F935F936F9344E15FEF6FEF6A950A
:1022E4006030E9F75A955030C9F74A954030A9F75C
:1022F4006F915F914F914F935F936F9344E15FEFC1
:102304006FEF6A956030E9F75A955030C9F74A95EE
:102314004030A9F76F915F914F9156B1503011F051
:102324000C94271261E042E317EE0E943511142F3A
:102334000E9439114F935F936F9344E15FEF6FEF06
:102344006A956030E9F75A955030C9F74A9540309C
:10235400A9F76F915F914F914F935F936F9344E10E
:102364005FEF6FEF6A956030E9F75A955030C9F71F
:102374004A954030A9F76F915F914F9156B1503013
:1023840011F00C94271262E043E317EE0E9435111A
:10239400142F0E9439114F935F936F9344E15FEFC1
:1023A4006FEF6A956030E9F75A955030C9F74A954E
:1023B4004030A9F76F915F914F914F935F936F9363
:1023C40044E15FEF6FEF6A956030E9F75A9550305A
:1023D400C9F74A954030A9F76F915F914F9156B173
:1023E400503011F00C94271263E044E317EE0E947E
:1023F4003511142F0E9439114F935F936F9344E169
:102404005FEF6FEF6A956030E9F75A955030C9F77E
:102414004A954030A9F76F915F914F914F935F9325
:102424006F9344E15FEF6FEF6A956030E9F75A9577
:102434005030C9F74A954030A9F76F915F914F9199
:1024440056B1503011F40C946311609301026F91F2
:102454005F914F912F91089500000000000000004B
:1024640000000000000000000000000000004368BD
:102474006F6F7365207375626A6563742020202012
:102484002020312E67656F67202020322E706879F6
:102494002020202020202020202020202020202038
:1024A40020202020202020202020332E6869732023
:1024B400202020342E6C69746520202020202100E7
:1040000031204175737472616C69616E20636170F7
:104010006974616C20202020202020202020202076
:10402000202020202020202069732E2E2E202020CA
:104030002020202020202020202020202020202080
:104040002020202020202020202020202020202070
:10405000210043616E6265727261202021204D65EE
:104060006C626F75726E652021205065727420201D
:104070002020202021205369646E65792020202093
:104080002120325768657265206973206C6F636107
:104090007465642020202020202020202020202043
:1040A00020202020202020202020204768616E61D1
:1040B0003F202020202020202020202020202020E1
:1040C00020202020202020202020202020202020F0
:1040D0002020210041667269636120202020212078
:1040E000417369612020202020202120532E416D22
:1040F00065726963612021204E2E416D657269638E
:1041000061202120334E4F54206E65696768626FCD
:104110007572206F66202020202020202020202063
:104120002020202020202020202020204368696E8D
:10413000613F20202020202020202020202020201F
:10414000202020202020202020202020202020206F
:104150002020202021004C616F732020202020206F
:1041600021204350445220202020202021204D6F28
:104170006E676F6C696120202120527573736961CD
:1041800020202020212034546865206869676865F4
:10419000737420706F696E742020202020202020EE
:1041A0002020202020202020202020202020696E78
:1041B0002074686520776F726C6420202020202096
:1041C00020202020202020202020202020202020EF
:1041D0002020202020202100456C62727573202051
:1041E00020202120457665726573742020202120CF
:1041F0004D6F6E626C616E202020212045746E61CF
:10420000202020202020212035486F77206D616EEE
:104210007920736561732020202020202020202019
:10422000202020202020202020202020202020208E
:10423000636972636C652052757373696120202015
:10424000202020202020202020202020202020206E
:10425000202020202020202021003132202020205A
:104260002020202021203436202020202020202023
:10427000212037202020202020202020212038200D
:1042800020202020202020202120365768657265BC
:1042900020696E20323031392D323020202020200C
:1042A000202020202020202020202020202020200E
:1042B0002020776572652062696767657374206680
:1042C000697265202020202020202020202020200E
:1042D0002020202020202020202021005553412074
:1042E00020202020202021204175737472616C6988
:1042F000612021204E2E5A65616C616E6420212060
:10430000556B7261696E2020202021203757686527
:104310007265206973206C6F63617465642020206E
:10432000202020202020202020202020202020208D
:104330002020202074686520647269657374207081
:104340006C6163653F202020202020202020202039
:104350002020202020202020202020202100416615
:10436000726963612020202021204575726F70657D
:10437000202020202120416E746172637469646181
:1043800021204173696120202020202021203848ED
:104390006F77206D616E7920636F756E72696573DA
:1043A000202020202020202020202020202020200D
:1043B000202020202020696E207468652045553F0C
:1043C00020202020202020202020202020202020ED
:1043D00020202020202020202020202020202100FC
:1043E000333020202020202020202120323820207F
:1043F0002020202020202120323420202020202096
:104400002020212038202020202020202020212092
:1044100039486F77206D616E7920726976657273A5
:10442000202020202020202020202020202020208C
:104430002020202020202020696E205370423F2021
:10444000202020202020202020202020202020206C
:10445000202020202020202020202020202020205C
:104460002100373820202020202020202120323019
:1044700031202020202020202120383920202020F9
:1044800020202020212037362020202020202020FE
:10449000212031305468652064656570657374202F
:1044A0006D6574726F202020202020202020202085
:1044B0002020202020202020202073746174696F28
:1044C0006E206C6F63617465642E2E202020202086
:1044D00020202020202020202020202020202020DC
:1044E0002020210053704220202020202020212045
:1044F0004D6F73636F772020202021204B696576F4
:104500002020202020202120486F6E676B6F6E676F
:1045100020202120000000010001020102022100F0
:10452000315768656E20776173204C656E696E2027
:10453000202020202020202020202020202020207B
:104540002020202020202020626F726E3F2020201B
:10455000202020202020202020202020202020205B
:10456000202020202020202020202020202020204B
:1045700021003138373520202020202021203138DB
:1045800036352020202020202120313234302020B8
:1045900020202020212031383830202020202021C8
:1045A000200032486F77206D616E792079656172E5
:1045B00073206861732020202020202020202020CC
:1045C000202020202020202020203130302D792054
:1045D00077617220636F6E74696E7565643F202029
:1045E00020202020202020202020202020202020CB
:1045F0002020210031303030202020202020212098
:104600003131362020202020202021203130202050
:104610002020202020202120393920202020202067
:10462000202021203357686F206C61756E636865A8
:1046300064206669727374202020202020202020AE
:10464000202020202020202020202020726F636B3B
:10465000657420696E2073706163653F202020209F
:10466000202020202020202020202020202020204A
:10467000202020202100572E427261756E202020BC
:1046800021204B6F726F6C657620202021204C65B5
:104690006E696E2020202020212053616B6861729A
:1046A0006F76202021203457686F20696E76656E02
:1046B0007465642066697273742020202020202095
:1046C0002020202020202020202020202020617554
:1046D000746F6361723F2020202020202020202042
:1046E00020202020202020202020202020202020CA
:1046F000202020202020210053696B6F72736B698A
:104700007920212042656E7A20202020202021203F
:10471000466F72642020202020202120506F727369
:104720006368652020202120355768656E207761F9
:10473000732074686520636976696C2020202020CE
:104740002020202020202020202020202020202069
:10475000696E205553413F2020202020202020201A
:104760002020202020202020202020202020202049
:1047700020202020202020202100313738362D38DD
:10478000392020202120313835352D353820202082
:104790002120313836312D36352020202120313866
:1047A00038382D3933202020212036546865206286
:1047B00069676765737420626174746C652020207A
:1047C00020202020202020202020202020202020E9
:1047D0002020696E205757492020202020202020AB
:1047E00020202020202020202020202020202020C9
:1047F000202020202020202020202100536F6D6DBC
:10480000612020202020212056657264756E2020B2
:10481000202021204C6F647A20202020202021207D
:104820004970726573202020202021203757686549
:104830007265207374617274656420317374202012
:104840002020202020202020202020202020202068
:1048500020202020696E642E207265766F6C75743E
:10486000696F6E3F20202020202020202020202043
:1048700020202020202020202020202021005553EF
:10488000412020202020202021205275732E456DAC
:10489000702020202120554B202020202020202067
:1048A00021204672616E6365202020202120385728
:1048B00048656E2057574949207761732020202092
:1048C00020202020202020202020202020202020E8
:1048D000202020202020737461727465643F2020A2
:1048E00020202020202020202020202020202020C8
:1048F00020202020202020202020202020202100D7
:104900003139333820202020202021203139313402
:10491000202020202020212032303134202020204F
:10492000202021203139333920202020202021202F
:1049300039486F77206F6C6420416C6578202020A7
:104940002020202020202020202020202020202067
:1049500020202020202020204D616365646F6E6937
:10496000616E20646965643F202020202020202083
:104970002020202020202020202020202020202037
:1049800021003234202020202020202021203531F9
:1049900020202020202020202120333220202020F1
:1049A00020202020212031382020202020202020DD
:1049B0002120313057686572652077617320546516
:1049C000736C612020202020202020202020202007
:1049D00020202020202020202020626F726E3F2087
:1049E00020202020202020202020202020202020C7
:1049F00020202020202020202020202020202020B7
:104A0000202021005A616772656220202020212029
:104A1000536D696C79616E20202021205669656E86
:104A20006E6120202020212042656C677261642025
:104A30002020212000010001020102030201314374
:104A4000757272656E7420706F77657220202020F9
:104A50002020202020202020202020202020202056
:104A60002020202020206D656173757265642069A7
:104A70006E2E2E20202020202020202020202020CC
:104A80002020202020202020202020202020210045
:104A9000466172616420202020202120416D7065D4
:104AA0007220202020202120576174742020202093
:104AB0002020212050617363616C20202020212060
:104AC000322033302D746820656C656D656E7420FE
:104AD00066726F6D202020202020202020202020A2
:104AE00020202020202020204D656E64656C6565A7
:104AF000762773207461626C652069732020202002
:104B000020202020202020202020202020202020A5
:104B100021005A696E63756D202020202120437585
:104B20007072756D20202020212042726F6D202030
:104B3000202020202120436172626F6E20202020DF
:104B400021203341746F6D20776569676874206F29
:104B5000662020202020202020202020202020200F
:104B6000202020202020202020205572616E697591
:104B70006D202020202020202020202020202020E8
:104B80002020202020202020202020202020202025
:104B900020202100323338202020202020202120F6
:104BA000323437202020202020202120323336208C
:104BB00020202020202021203233352020202020BA
:104BC00020202120344F686D2773206C61772020CE
:104BD00020202020202020202020202020202020D5
:104BE00020202020202020202020202020202020C5
:104BF00020202020202020202020202020202020B5
:104C000020202020202020202020202020202020A4
:104C1000202020202100493D552A522020202020FC
:104C20002120553D495E322F522020202120493D30
:104C3000552F5220202020202120523D512F552039
:104C40002020202021203557686F20637265617411
:104C500065642072656C2E202020202020202020DA
:104C600020202020202020202020202020207468A8
:104C7000656F72793F2020202020202020202020D6
:104C80002020202020202020202020202020202024
:104C90002020202020202100426F72202020202070
:104CA000202021205465736C6120202020202120A9
:104CB00045696E737465696E2020212043757269A1
:104CC000652020202020212036486F77206D616EDE
:104CD00079204E6577746F6E277320202020202066
:104CE00020202020202020202020202020202020C4
:104CF0006C6177733F20202020202020202020205E
:104D000020202020202020202020202020202020A3
:104D100020202020202020202100322020202020A0
:104D2000202020202120332020202020202020206F
:104D30002120342020202020202020202120352048
:104D40002020202020202020212037204720636F92
:104D50006E7374616E7420697320202020202020DF
:104D600020202020202020202020202020202065FE
:104D70007175616C20746F286F6E20657175617438
:104D80006F72292020202020202020202020202079
:104D9000202020202020202020202100392E3738DC
:104DA0003620202020202120392E37383220202084
:104DB00020202120392E373930202020202021208A
:104DC000392E373830202020202021203857686F96
:104DD0002070726F746F74697065642074686520E8
:104DE00020202020202020202020202020202020C3
:104DF000206669727374207061726163687574658E
:104E00003F20202020202020202020202020202083
:104E10002020202020202020202020202100577228
:104E200069676874202020202120576C65667420F3
:104E30002020202021205475706F6C657620202062
:104E4000212044612056696E636920202120394D5C
:104E5000656E64656C6565762D436C61697065721D
:104E60006F202020202020202020202020202020F3
:104E70002020206E6520666F726D756C653F202066
:104E80002020202020202020202020202020202022
:104E90002020202020202020202020202020210031
:104EA00050563D755254202020202120463D6D61F2
:104EB0002020202020202120493D552F5220202035
:104EC0002020212050543D755256202020202120A2
:104ED00031305468652064656E73697479206F663B
:104EE00020202020202020202020202020202020C2
:104EF00020202020206D65726375727928656C65AD
:104F00006D656E7429202020202020202020202064
:104F10002020202020202020202020202020202091
:104F20002100313336303020202020202120383518
:104F300030302020202020202120313438382020FB
:104F40002020202021203838303020202020202010
:104F50002120010000020201010300003157686FA7
:104F60007365207573656420616C6965732020200A
:104F70002020202020202020202020202020202031
:104F800020456964205472756520476F6420202095
:104F90002020202020202020202020202020202011
:104FA000202020202020202020202020210050759B
:104FB00073686B696E20202021204E6577746F6EB8
:104FC00020202020212064612056696E6369202002
:104FD000212046726F6D6D20202020202120325725
:104FE000686F2077726F746520274D756D75273F48
:104FF00020202020202020202020202020202020B1
:1050000020202020202020202020202020202020A0
:105010002020202020202020202020202020202090
:10502000202020202020202020202020202021009F
:1050300054757267656E657620202120546F6C73FD
:10504000746F692020202120476F726B69792020BE
:10505000202021204665742020202020202021208F
:1050600033486F77206F6C64204C65726D6F6E747F
:105070006F7620202020202020202020202020208B
:10508000202020202020646965643F2020202020EB
:105090002020202020202020202020202020202010
:1050A0002020202020202020202020202020202000
:1050B00021003236202020202020202021203238BC
:1050C00020202020202020202120323720202020B6
:1050D00020202020212032392020202020202020A4
:1050E00021203457686F2077726F74652027496CD0
:1050F0006C6961646127202020202020202020204E
:10510000202020202020202020202020202020209F
:10511000202020202020202020202020202020208F
:10512000202020202020202020202020202020207F
:105130002020210044696F67656E202020202120F7
:10514000486F6D657220202020202120536F6B72E4
:1051500061742020202021204F64697373657920B9
:105160002020212035486F77206D616E7920686599
:105170006C6C27732020202020202020202020203D
:10518000202020202020202020206C6576656C7354
:1051900020696E20476F6420636F6D6564792020FD
:1051A00020202020202020202020202020202020FF
:1051B00020202020210037202020202020202020F7
:1051C00021203320202020202020202021203920B1
:1051D00020202020202020202120313320202020AA
:1051E00020202020212036576869636820616C697F
:1051F000617320757365202020202020202020202E
:10520000202020202020202020202020472E532E28
:1052100020436861727469736876696C693F202005
:10522000202020202020202020202020202020207E
:105230002020202020202100416B756E696E2020E7
:105240002020212050656C6576696E202020212069
:10525000446F6E74736F7661202021204D617274EB
:10526000696E20202020212037486F77206D616EE5
:105270007920626F6F6B7320696E202020202020C0
:105280002020202020202020202020202020536F9C
:105290006E67206F662049636520616E64204669F1
:1052A0007265202020202020202020202020202067
:1052B00020202020202020202100342020202020F9
:1052C00020202020212033202020202020202020CA
:1052D00021203620202020202020202021203520A1
:1052E00020202020202020202120385768656E2093
:1052F000776173207075626C697368656420202023
:10530000202020202020202020202020202020209D
:10531000626F6F6B27546865204C61737420576906
:105320007368273F202020202020202020202020BC
:105330002020202020202020202021003139393534
:105340002020202020202120313939332020202006
:1053500020202120313939372020202020202120F1
:1053600032303030202020202020212039486F7713
:10537000206D616E7920776F72647320696E2020D2
:10538000202020202020202020202020202020201D
:10539000202057617220616E642050656163653F13
:1053A00020202020202020202020202020202020FD
:1053B00020202020202020202020202021003736DF
:1053C000303320202020202021203332313534205A
:1053D000202020202120313838303838202020204B
:1053E0002120343232363536202020202120313021
:1053F000546865206D61696E2076696C6C61696EB8
:10540000202020202020202020202020202020209C
:1054100020202020696E204C6F7264206F662074FB
:1054200068652052696E677320202020202020208C
:10543000202020202020202020202020202021008B
:1054400047656E64616C66202020212046726F647F
:105450006F202020202021204C6563746F72202053
:1054600020202120536175726F6E20202020212082
:1054700001000101030003010203596F2776652033
:10548000636F6D706C657465642074686520526527
:1054900073756C743A2020202020202020202020AA
:1054A00020207465737420202020202020202020BC
:1054B00020202020202020202020202020202020EC
:1054C000202020202020202020202100000000007B
:1054D00000000000000000000000000000000000CC
:1054E00000000000000000000000000000000000BC
:1054F00000000000000000000000000000000000AC
:10550000000000000000000000000000000000009B
:0C5510000000000000000000000000008F
:00000001FF
